{
  "contractName": "TokenWrapper",
  "abi": [
    {
      "inputs": [
        {
          "internalType": "address",
          "name": "",
          "type": "address"
        },
        {
          "internalType": "address",
          "name": "",
          "type": "address"
        }
      ],
      "name": "allowed",
      "outputs": [
        {
          "internalType": "uint256",
          "name": "",
          "type": "uint256"
        }
      ],
      "stateMutability": "view",
      "type": "function",
      "constant": true
    },
    {
      "inputs": [
        {
          "internalType": "address",
          "name": "target",
          "type": "address"
        },
        {
          "internalType": "address",
          "name": "token",
          "type": "address"
        },
        {
          "internalType": "uint256",
          "name": "amount",
          "type": "uint256"
        }
      ],
      "name": "wrap",
      "outputs": [],
      "stateMutability": "payable",
      "type": "function",
      "payable": true
    },
    {
      "inputs": [
        {
          "internalType": "address",
          "name": "target",
          "type": "address"
        },
        {
          "internalType": "uint256",
          "name": "amount",
          "type": "uint256"
        }
      ],
      "name": "unwrap",
      "outputs": [],
      "stateMutability": "payable",
      "type": "function",
      "payable": true
    },
    {
      "inputs": [
        {
          "internalType": "address",
          "name": "spender",
          "type": "address"
        },
        {
          "internalType": "uint256",
          "name": "amount",
          "type": "uint256"
        }
      ],
      "name": "approve",
      "outputs": [],
      "stateMutability": "nonpayable",
      "type": "function"
    }
  ],
  "bytecode": "0x608060405234801561001057600080fd5b506108b6806100206000396000f3fe60806040526004361061003f5760003560e01c8063095ea7b31461004457806339f476931461006d5780635c6581651461008957806362355638146100c6575b600080fd5b34801561005057600080fd5b5061006b600480360381019061006691906104dd565b6100e2565b005b610087600480360381019061008291906104dd565b610167565b005b34801561009557600080fd5b506100b060048036038101906100ab919061051d565b6102bc565b6040516100bd919061056c565b60405180910390f35b6100e060048036038101906100db9190610587565b6102e1565b005b80600160003373ffffffffffffffffffffffffffffffffffffffff1673ffffffffffffffffffffffffffffffffffffffff16815260200190815260200160002060008473ffffffffffffffffffffffffffffffffffffffff1673ffffffffffffffffffffffffffffffffffffffff168152602001908152602001600020819055505050565b60008054906101000a900473ffffffffffffffffffffffffffffffffffffffff1673ffffffffffffffffffffffffffffffffffffffff166323b872dd8330846040518463ffffffff1660e01b81526004016101c4939291906105e9565b6020604051808303816000875af11580156101e3573d6000803e3d6000fd5b505050506040513d601f19601f820116820180604052508101906102079190610658565b506000808373ffffffffffffffffffffffffffffffffffffffff168360405161022f906106b6565b60006040518083038185875af1925050503d806000811461026c576040519150601f19603f3d011682016040523d82523d6000602084013e610271565b606091505b5091509150816102b6576040517f08c379a00000000000000000000000000000000000000000000000000000000081526004016102ad90610728565b60405180910390fd5b50505050565b6001602052816000526040600020602052806000526040600020600091509150505481565b600173ffffffffffffffffffffffffffffffffffffffff168273ffffffffffffffffffffffffffffffffffffffff1614610350576040517f08c379a000000000000000000000000000000000000000000000000000000000815260040161034790610794565b60405180910390fd5b803414610392576040517f08c379a000000000000000000000000000000000000000000000000000000000815260040161038990610800565b60405180910390fd5b60008054906101000a900473ffffffffffffffffffffffffffffffffffffffff1673ffffffffffffffffffffffffffffffffffffffff166323b872dd30856002856103dd919061084f565b6040518463ffffffff1660e01b81526004016103fb939291906105e9565b6020604051808303816000875af115801561041a573d6000803e3d6000fd5b505050506040513d601f19601f8201168201806040525081019061043e9190610658565b50505050565b600080fd5b600073ffffffffffffffffffffffffffffffffffffffff82169050919050565b600061047482610449565b9050919050565b61048481610469565b811461048f57600080fd5b50565b6000813590506104a18161047b565b92915050565b6000819050919050565b6104ba816104a7565b81146104c557600080fd5b50565b6000813590506104d7816104b1565b92915050565b600080604083850312156104f4576104f3610444565b5b600061050285828601610492565b9250506020610513858286016104c8565b9150509250929050565b6000806040838503121561053457610533610444565b5b600061054285828601610492565b925050602061055385828601610492565b9150509250929050565b610566816104a7565b82525050565b6000602082019050610581600083018461055d565b92915050565b6000806000606084860312156105a05761059f610444565b5b60006105ae86828701610492565b93505060206105bf86828701610492565b92505060406105d0868287016104c8565b9150509250925092565b6105e381610469565b82525050565b60006060820190506105fe60008301866105da565b61060b60208301856105da565b610618604083018461055d565b949350505050565b60008115159050919050565b61063581610620565b811461064057600080fd5b50565b6000815190506106528161062c565b92915050565b60006020828403121561066e5761066d610444565b5b600061067c84828501610643565b91505092915050565b600081905092915050565b50565b60006106a0600083610685565b91506106ab82610690565b600082019050919050565b60006106c182610693565b9150819050919050565b600082825260208201905092915050565b7f4661696c656420746f2073656e64204574686572000000000000000000000000600082015250565b60006107126014836106cb565b915061071d826106dc565b602082019050919050565b6000602082019050818103600083015261074181610705565b9050919050565b7f546f6b656e206973206e6f742045544800000000000000000000000000000000600082015250565b600061077e6010836106cb565b915061078982610748565b602082019050919050565b600060208201905081810360008301526107ad81610771565b9050919050565b7f416d6f756e7420646f6573206e6f74206d617463680000000000000000000000600082015250565b60006107ea6015836106cb565b91506107f5826107b4565b602082019050919050565b60006020820190508181036000830152610819816107dd565b9050919050565b7f4e487b7100000000000000000000000000000000000000000000000000000000600052601260045260246000fd5b600061085a826104a7565b9150610865836104a7565b92508261087557610874610820565b5b82820490509291505056fea26469706673582212209dce56308ec15a2e22848c4beeb2b31339ce3fe08bbc256eee93f1f150e3feb964736f6c634300080b0033",
  "immutableReferences": {},
  "source": "// SPDX-License-Identifier: MIT\npragma solidity ^0.8.10;\n\nimport \"./KennyCoin.sol\";\n\ncontract TokenWrapper {\n  KennyCoin kennyCoin;\n  mapping(address => mapping(address => uint256)) public allowed;\n\n  // accept only ETH\n  address internal constant ETH_ADDRESS = address(0x1); // Address for tokens representing Ether is 0x00...01\n\n  function wrap(\n    address target,\n    address token,\n    uint256 amount\n  ) public payable {\n    // check if token is ETH\n    require(token == ETH_ADDRESS, \"Token is not ETH\");\n\n    // check if the amount is correct, msg.value for eth\n    require(msg.value == amount, \"Amount does not match\");\n\n    // mint token to the target\n    kennyCoin.transferFrom(address(this), target, amount / 2);\n  }\n\n  function unwrap(address target, uint256 amount) public payable {\n    // burn the token\n    kennyCoin.transferFrom(target, address(this), amount);\n\n    // send ETH to target\n    (bool sent, bytes memory data) = target.call{value: amount}(\"\");\n    require(sent, \"Failed to send Ether\");\n  }\n\n  function approve(address spender, uint256 amount) public {\n    allowed[msg.sender][spender] = amount;\n  }\n}\n",
  "sourcePath": "/root/first-solidity/contracts/TokenWrapper.sol",
  "compiler": {
    "name": "solc",
    "version": "0.8.11+commit.d7f03943.Emscripten.clang"
  },
  "schemaVersion": "3.4.4",
  "updatedAt": "2022-01-27T03:38:47.098Z",
  "networkType": "ethereum",
  "devdoc": {
    "kind": "dev",
    "methods": {},
    "version": 1
  },
  "userdoc": {
    "kind": "user",
    "methods": {},
    "version": 1
  }
}